:1000000071C000008EC000008CC000008AC00000DB
:1000100088C0000086C0000084C0000082C00000CC
:1000200080C000007EC000007CC000007AC00000DC
:1000300078C0000076C0000074C0000072C00000EC
:1000400070C000006EC000006CC000006AC00000FC
:1000500068C0000066C0000064C0000062C000000C
:1000600060C000007FC000005CC000005AC00000FB
:1000700058C0000056C0000054C0000052C000002C
:1000800050C000004EC000004CC000004AC000003C
:1000900048C0000046C0000044C0000042C000004C
:1000A00040C000003EC000003CC000003AC000005C
:1000B00038C0000036C0000034C0000032C000006C
:1000C00030C000002EC000002CC000002AC000007C
:1000D00028C0000026C0000024C0000022C000008C
:1000E00020C0000011241FBECFEFD1E2DEBFCDBF84
:1000F00000E00CBF13E0A0E0B2E0E0E1FAE000E0D5
:100100000BBF02C007900D92A037B107D9F723E0CB
:10011000A0E7B3E001C01D92A837B207E1F788D08D
:1001200075C46ECF87E68093C4001092C50088E93D
:100130008093C1008EE092E09F938F9385E192E0DF
:100140009F938F938AE192E09F938F9388D189E365
:1001500092E09BD178940F900F900F900F900F909A
:100160000F9008951F920F920FB60F9211240BB6A5
:100170000F922F933F934F935F936F937F938F9340
:100180009F93AF93BF93EF93FF93F8948091C60032
:10019000909170039D32F0F48D3011F08A3031F47B
:1001A0008AE090E06DD1109270031DC08F3751F43A
:1001B0008093C600809170038823A9F081508093BA
:1001C000700311C08093C600809170038F5F80938D
:1001D000700309C083E592E09F938F9340D1109202
:1001E00070030F900F907894FF91EF91BF91AF91B2
:1001F0009F918F917F916F915F914F913F912F913F
:100200000F900BBE0F900FBE0F901F901895CF93BD
:10021000C82F8A3011F48DE0FADFE0ECF0E0908135
:1002200095FFFDCFC093C60080E090E0CF91089588
:1002300080E092E09093750380937403279A72DFB5
:1002400086E792E022D1809164001F928F938EE81E
:1002500092E09F938F9303D13FD062E070E081E002
:1002600090E084D08FE39CE90197F1F700C0000093
:100270006FEF70E080E090E05AD065EE70E081E0D2
:1002800090E055D081E090E063D080E090E060D0D5
:100290000F900F900F900F9085B1805885B99FEF08
:1002A00029E688E1915020408040E1F700C000003D
:1002B000F3CF882321F0813019F4A29A0895A298EF
:1002C0000895882321F0813019F4289A08952898F8
:1002D0000895ABD0989A089589E992E0D6D0F9DFD5
:1002E00080E0E7DF81E0EDCF0895CF93DF93D82F53
:1002F000C62F80E0E6DF8D2F8F718062AAD08C2F11
:10030000A8D081E0DEDFDF91CF91089580E0D9DFD2
:1003100082EE9FD081E0D5DF80E0CBDF60E787E031
:10032000E4DF6BE080E0E1DF81E0C3CF0895CF93AD
:10033000DF93D82FC62F80E0C4DF8D2F8F718062AE
:1003400088D08C2F86D081E0BCDFDF91CF910895DB
:10035000CF93C82F80E0B5DF8C2F8F717AD08FEFCD
:1003600078D081E0AEDF8EB5CF9108950F931F93C3
:10037000CF93DF93C82FD62F1F926F931F928F9327
:1003800027EB32E03F932F936AD0D09371036C2F09
:1003900085E0ABDF60E081E1A8DF6091710382E17D
:1003A000A4DF60E083E1A1DF60E084E19EDF60E044
:1003B00085E19BDF60E086E198DF66E086E095DF1F
:1003C00068E080E092DF63E081E08FDF63E082E05D
:1003D0008CDF6FE484E089DF60E08CE186DF96DF0C
:1003E0008FEF92E052D00F900F900F900F900F90E0
:1003F0000F90C0E0D0E006E113E08C2FA9DF1F9240
:100400008F93DF93CF931F930F9329D021960F9053
:100410000F900F900F900F900F90CD31D10569F78D
:10042000DF91CF911F910F91089584B1876084B9B6
:100430008CB581658CBD289A8CB51F928F938BE506
:1004400093E09F938F930BD00F900F900F900F908E
:1004500008958EBD0DB407FEFDCF8EB50895CF93E0
:10046000DF93CDB7DEB7FE01369661917191AF0192
:10047000809174039091750335D0DF91CF910895E9
:10048000609174037091750331C20F931F93CF93E2
:10049000DF93E0917403F0917503238121FF1BC06A
:1004A000EC0100E010E08991609174037091750394
:1004B000DB011896ED91FC911997882331F019957D
:1004C000892B89F30FEF1FEFEECF8AE01995892B67
:1004D00011F4C80102C08FEF9FEFDF91CF911F9100
:1004E0000F9108952F923F924F925F926F927F9259
:1004F0008F929F92AF92BF92CF92DF92EF92FF9234
:100500000F931F93CF93DF93CDB7DEB72C970FB622
:10051000F894DEBF0FBECDBF7C016B018A01FC01E8
:1005200017821682838181FFB0C1CE0101964C01F2
:10053000F7019381F60193FD859193FF81916F01FE
:10054000882309F49EC1853239F493FD859193FF88
:1005500081916F01853221F4B70190E0C7D1E8CFD6
:10056000512C312C20E02032A0F48B3269F030F491
:10057000803259F0833269F420612CC08D3239F019
:10058000803339F4216026C02260246023C02860B3
:1005900021C027FD27C030ED380F3A3078F426FF10
:1005A00006C0FAE05F9E300D1124532E13C08AE07E
:1005B000389E300D1124332E20620CC08E3221F46F
:1005C00026FD5FC1206406C08C3611F4206802C08D
:1005D000883641F4F60193FD859193FF81916F0177
:1005E0008111C1CF982F9F7D9554933028F40C5FD3
:1005F0001F4FFFE3F9830DC0833631F0833771F06D
:10060000833509F057C021C0F801808189830E5FCE
:100610001F4F44244394512C540114C03801F2E07C
:100620006F0E711CF801A080B18026FF03C0652DFC
:1006300070E002C06FEF7FEFC5012C874CD12C0119
:1006400083012C852F77222E16C03801F2E06F0E21
:10065000711CF801A080B18026FF03C0652D70E0F9
:1006600002C06FEF7FEFC5012C872AD12C012C85AA
:100670002068222E830123FC19C0832D90E04816A8
:100680005906A0F4B70180E290E030D13A94F5CF5A
:10069000F50127FC859127FE81915F01B70190E06C
:1006A00025D131103A94F1E04F1A51084114510408
:1006B00079F7DEC0843611F0893631F5F80127FF6D
:1006C00007C060817181828193810C5F1F4F08C0D8
:1006D00060817181882777FD8095982F0E5F1F4F6D
:1006E0002F76B22E97FF09C09095809570956195F1
:1006F0007F4F8F4F9F4F2068B22E2AE030E0A40139
:1007000027D1A82EA81843C0853729F42F7EB22EF2
:100710002AE030E025C0F22FF97FBF2E8F36C1F0DE
:1007200018F4883579F0ADC0803719F0883721F09A
:10073000A8C02F2F2061B22EB4FE0DC08B2D846077
:10074000B82E09C024FF0AC09F2F9660B92E06C09C
:1007500028E030E005C020E130E002C020E132E0D6
:10076000F801B7FE07C060817181828193810C5FBF
:100770001F4F06C06081718180E090E00E5F1F4FC7
:10078000A401E6D0A82EA818FB2DFF77BF2EB6FE39
:100790000BC02B2D2E7FA51450F4B4FE0AC0B2FC62
:1007A00008C02B2D2E7E05C07A2C2B2D03C07A2C51
:1007B00001C0752C24FF0DC0FE01EA0DF11D8081E2
:1007C000803311F4297E09C022FF06C0739473940C
:1007D00004C0822F867809F0739423FD12C020FF95
:1007E00006C05A2C731418F4530C5718732C731436
:1007F00060F4B70180E290E02C8778D073942C8568
:10080000F6CF731410F4371801C0312C24FF11C037
:10081000B70180E390E02C8769D02C8522FF16C0B9
:1008200021FF03C088E590E002C088E790E0B701AF
:100830000CC0822F867851F021FD02C080E201C0F9
:100840008BE227FD8DE2B70190E050D0A51430F483
:10085000B70180E390E04AD05A94F8CFAA94F4010B
:10086000EA0DF11D8081B70190E040D0A110F6CFD4
:10087000332009F45DCEB70180E290E037D03A949E
:10088000F7CFF7018681978102C08FEF9FEF2C96FB
:100890000FB6F894DEBF0FBECDBFDF91CF911F9191
:1008A0000F91FF90EF90DF90CF90BF90AF909F900F
:1008B0008F907F906F905F904F903F902F90089512
:1008C000FC010590615070400110D8F7809590951B
:1008D0008E0F9F1F0895FC01615070400190011020
:1008E000D8F7809590958E0F9F1F08950F931F93B3
:1008F000CF93DF93182F092FEB018B8181FD03C06C
:100900008FEF9FEF20C082FF10C04E815F812C814E
:100910003D81421753077CF4E881F9819F012F5FE5
:100920003F4F39832883108306C0E885F985812FDE
:100930001995892B29F72E813F812F5F3F4F3F83E8
:100940002E83812F902FDF91CF911F910F910895CA
:10095000FA01AA27283051F1203181F1E8946F93F0
:100960006E7F6E5F7F4F8F4F9F4FAF4FB1E03ED096
:10097000B4E03CD0670F781F891F9A1FA11D680F34
:10098000791F8A1F911DA11D6A0F711D811D911D67
:10099000A11D20D009F468943F912AE0269F1124DC
:1009A0003019305D3193DEF6CF010895462F477040
:1009B000405D4193B3E00FD0C9F7F6CF462F4F709B
:1009C000405D4A3318F0495D31FD4052419302D0F9
:1009D000A9F7EACFB4E0A69597958795779567959F
:1009E000BA95C9F700976105710508959B01AC019F
:1009F0000A2E06945795479537952795BA95C9F7C6
:100A0000620F731F841F951FA01D0895F894FFCFD8
:100A100000000002000000000701000000001B5B56
:100A2000313B3148001B5B324A0025732573526FFE
:100A30007A706F637AEA63696520706F72677261BA
:100A40006D7520766572310A00696E69636A616C42
:100A5000697A61636A61205553415254202D204FB9
:100A60004B200070727A656B726F637A6F6E6F20C5
:100A70006D617820696C6F7363207A6E616B6F773C
:100A8000202F6E2F7200726F7A706F637AEA63693B
:100A9000652070726F6772616D752E2E2E00505238
:100AA0005230203A2025780A00696E69636A616CC9
:100AB000697A61636A61206E726632346C30312EFD
:100AC0002E0030782578006B6F6E666967757261ED
:100AD000636A61206E726632346C3130203A206B6A
:100AE000616E61B33A2025642C2064B375676F9CF6
:100AF000E620737472756D69656E612064616E794C
:100B00006368203D20256420626A74F3770A0075CB
:100B10007374617769656E69612072656A65737463
:100B200072F377203A0072656769737465725B25AA
:100B3000645D203D2030782578200A002564203A25
:100B400020256420202D2D2D3E002564203A2025CF
:100B5000640A007265616452656769737465722026
:100B60003A20256420256420256400696E6974207C
:100B70005350492053504352203A2025780A000010
:00000001FF
